Archive member included to satisfy reference by file (symbol)

c:/program files (x86)/atmel/studio/7.0/toolchain/avr8/avr8-gnu-toolchain/bin/../lib/gcc/avr/4.9.2/../../../../avr/lib/avr5\libm.a(addsf3.o)
                              src/battery.o (__subsf3)
c:/program files (x86)/atmel/studio/7.0/toolchain/avr8/avr8-gnu-toolchain/bin/../lib/gcc/avr/4.9.2/../../../../avr/lib/avr5\libm.a(addsf3x.o)
                              c:/program files (x86)/atmel/studio/7.0/toolchain/avr8/avr8-gnu-toolchain/bin/../lib/gcc/avr/4.9.2/../../../../avr/lib/avr5\libm.a(addsf3.o) (__addsf3x)
c:/program files (x86)/atmel/studio/7.0/toolchain/avr8/avr8-gnu-toolchain/bin/../lib/gcc/avr/4.9.2/../../../../avr/lib/avr5\libm.a(cmpsf2.o)
                              src/battery.o (__ltsf2)
c:/program files (x86)/atmel/studio/7.0/toolchain/avr8/avr8-gnu-toolchain/bin/../lib/gcc/avr/4.9.2/../../../../avr/lib/avr5\libm.a(divsf3.o)
                              src/battery.o (__divsf3)
c:/program files (x86)/atmel/studio/7.0/toolchain/avr8/avr8-gnu-toolchain/bin/../lib/gcc/avr/4.9.2/../../../../avr/lib/avr5\libm.a(divsf3x.o)
                              c:/program files (x86)/atmel/studio/7.0/toolchain/avr8/avr8-gnu-toolchain/bin/../lib/gcc/avr/4.9.2/../../../../avr/lib/avr5\libm.a(divsf3.o) (__divsf3x)
c:/program files (x86)/atmel/studio/7.0/toolchain/avr8/avr8-gnu-toolchain/bin/../lib/gcc/avr/4.9.2/../../../../avr/lib/avr5\libm.a(fixsfsi.o)
                              src/ntc_temperature.o (__fixsfsi)
c:/program files (x86)/atmel/studio/7.0/toolchain/avr8/avr8-gnu-toolchain/bin/../lib/gcc/avr/4.9.2/../../../../avr/lib/avr5\libm.a(fixunssfsi.o)
                              src/battery.o (__fixunssfsi)
c:/program files (x86)/atmel/studio/7.0/toolchain/avr8/avr8-gnu-toolchain/bin/../lib/gcc/avr/4.9.2/../../../../avr/lib/avr5\libm.a(floatsisf.o)
                              src/battery.o (__floatunsisf)
c:/program files (x86)/atmel/studio/7.0/toolchain/avr8/avr8-gnu-toolchain/bin/../lib/gcc/avr/4.9.2/../../../../avr/lib/avr5\libm.a(fp_cmp.o)
                              c:/program files (x86)/atmel/studio/7.0/toolchain/avr8/avr8-gnu-toolchain/bin/../lib/gcc/avr/4.9.2/../../../../avr/lib/avr5\libm.a(cmpsf2.o) (__fp_cmp)
c:/program files (x86)/atmel/studio/7.0/toolchain/avr8/avr8-gnu-toolchain/bin/../lib/gcc/avr/4.9.2/../../../../avr/lib/avr5\libm.a(fp_inf.o)
                              c:/program files (x86)/atmel/studio/7.0/toolchain/avr8/avr8-gnu-toolchain/bin/../lib/gcc/avr/4.9.2/../../../../avr/lib/avr5\libm.a(addsf3x.o) (__fp_inf)
c:/program files (x86)/atmel/studio/7.0/toolchain/avr8/avr8-gnu-toolchain/bin/../lib/gcc/avr/4.9.2/../../../../avr/lib/avr5\libm.a(fp_nan.o)
                              c:/program files (x86)/atmel/studio/7.0/toolchain/avr8/avr8-gnu-toolchain/bin/../lib/gcc/avr/4.9.2/../../../../avr/lib/avr5\libm.a(addsf3x.o) (__fp_nan)
c:/program files (x86)/atmel/studio/7.0/toolchain/avr8/avr8-gnu-toolchain/bin/../lib/gcc/avr/4.9.2/../../../../avr/lib/avr5\libm.a(fp_pscA.o)
                              c:/program files (x86)/atmel/studio/7.0/toolchain/avr8/avr8-gnu-toolchain/bin/../lib/gcc/avr/4.9.2/../../../../avr/lib/avr5\libm.a(addsf3x.o) (__fp_pscA)
c:/program files (x86)/atmel/studio/7.0/toolchain/avr8/avr8-gnu-toolchain/bin/../lib/gcc/avr/4.9.2/../../../../avr/lib/avr5\libm.a(fp_pscB.o)
                              c:/program files (x86)/atmel/studio/7.0/toolchain/avr8/avr8-gnu-toolchain/bin/../lib/gcc/avr/4.9.2/../../../../avr/lib/avr5\libm.a(addsf3x.o) (__fp_pscB)
c:/program files (x86)/atmel/studio/7.0/toolchain/avr8/avr8-gnu-toolchain/bin/../lib/gcc/avr/4.9.2/../../../../avr/lib/avr5\libm.a(fp_round.o)
                              c:/program files (x86)/atmel/studio/7.0/toolchain/avr8/avr8-gnu-toolchain/bin/../lib/gcc/avr/4.9.2/../../../../avr/lib/avr5\libm.a(addsf3.o) (__fp_round)
c:/program files (x86)/atmel/studio/7.0/toolchain/avr8/avr8-gnu-toolchain/bin/../lib/gcc/avr/4.9.2/../../../../avr/lib/avr5\libm.a(fp_split3.o)
                              c:/program files (x86)/atmel/studio/7.0/toolchain/avr8/avr8-gnu-toolchain/bin/../lib/gcc/avr/4.9.2/../../../../avr/lib/avr5\libm.a(addsf3x.o) (__fp_split3)
c:/program files (x86)/atmel/studio/7.0/toolchain/avr8/avr8-gnu-toolchain/bin/../lib/gcc/avr/4.9.2/../../../../avr/lib/avr5\libm.a(fp_zero.o)
                              c:/program files (x86)/atmel/studio/7.0/toolchain/avr8/avr8-gnu-toolchain/bin/../lib/gcc/avr/4.9.2/../../../../avr/lib/avr5\libm.a(addsf3x.o) (__fp_zero)
c:/program files (x86)/atmel/studio/7.0/toolchain/avr8/avr8-gnu-toolchain/bin/../lib/gcc/avr/4.9.2/../../../../avr/lib/avr5\libm.a(gesf2.o)
                              src/ntc_temperature.o (__gtsf2)
c:/program files (x86)/atmel/studio/7.0/toolchain/avr8/avr8-gnu-toolchain/bin/../lib/gcc/avr/4.9.2/../../../../avr/lib/avr5\libm.a(mulsf3.o)
                              src/ntc_temperature.o (__mulsf3)
c:/program files (x86)/atmel/studio/7.0/toolchain/avr8/avr8-gnu-toolchain/bin/../lib/gcc/avr/4.9.2/../../../../avr/lib/avr5\libm.a(mulsf3x.o)
                              c:/program files (x86)/atmel/studio/7.0/toolchain/avr8/avr8-gnu-toolchain/bin/../lib/gcc/avr/4.9.2/../../../../avr/lib/avr5\libm.a(mulsf3.o) (__mulsf3x)
c:/program files (x86)/atmel/studio/7.0/toolchain/avr8/avr8-gnu-toolchain/bin/../lib/gcc/avr/4.9.2/avr5\libgcc.a(_udivmodsi4.o)
                              src/drivers/uart.o (__udivmodsi4)
c:/program files (x86)/atmel/studio/7.0/toolchain/avr8/avr8-gnu-toolchain/bin/../lib/gcc/avr/4.9.2/avr5\libgcc.a(_exit.o)
                              C:/Program Files (x86)/Atmel/Studio/7.0/Packs/atmel/ATmega_DFP/1.0.106/gcc/dev/atmega168p/avr5/crtatmega168p.o (exit)
c:/program files (x86)/atmel/studio/7.0/toolchain/avr8/avr8-gnu-toolchain/bin/../lib/gcc/avr/4.9.2/avr5\libgcc.a(_tablejump2.o)
                              src/ble.o (__tablejump2__)
c:/program files (x86)/atmel/studio/7.0/toolchain/avr8/avr8-gnu-toolchain/bin/../lib/gcc/avr/4.9.2/avr5\libgcc.a(_copy_data.o)
                              src/ble.o (__do_copy_data)
c:/program files (x86)/atmel/studio/7.0/toolchain/avr8/avr8-gnu-toolchain/bin/../lib/gcc/avr/4.9.2/avr5\libgcc.a(_clear_bss.o)
                              src/battery.o (__do_clear_bss)
c:/program files (x86)/atmel/studio/7.0/toolchain/avr8/avr8-gnu-toolchain/bin/../lib/gcc/avr/4.9.2/avr5\libgcc.a(_umulhisi3.o)
                              src/battery.o (__umulhisi3)
c:/program files (x86)/atmel/studio/7.0/toolchain/avr8/avr8-gnu-toolchain/bin/../lib/gcc/avr/4.9.2/avr5\libgcc.a(_muluhisi3.o)
                              src/battery.o (__muluhisi3)
c:/program files (x86)/atmel/studio/7.0/toolchain/avr8/avr8-gnu-toolchain/bin/../lib/gcc/avr/4.9.2/../../../../avr/lib/avr5\libc.a(atoi.o)
                              src/ble.o (atoi)
c:/program files (x86)/atmel/studio/7.0/toolchain/avr8/avr8-gnu-toolchain/bin/../lib/gcc/avr/4.9.2/../../../../avr/lib/avr5\libc.a(strncpy.o)
                              src/ble.o (strncpy)
c:/program files (x86)/atmel/studio/7.0/toolchain/avr8/avr8-gnu-toolchain/bin/../lib/gcc/avr/4.9.2/../../../../avr/lib/avr5\libc.a(strstr.o)
                              src/ble.o (strstr)
c:/program files (x86)/atmel/studio/7.0/toolchain/avr8/avr8-gnu-toolchain/bin/../lib/gcc/avr/4.9.2/../../../../avr/lib/avr5\libc.a(itoa_ncheck.o)
                              src/ble.o (__itoa_ncheck)
c:/program files (x86)/atmel/studio/7.0/toolchain/avr8/avr8-gnu-toolchain/bin/../lib/gcc/avr/4.9.2/../../../../avr/lib/avr5\libc.a(mul10.o)
                              c:/program files (x86)/atmel/studio/7.0/toolchain/avr8/avr8-gnu-toolchain/bin/../lib/gcc/avr/4.9.2/../../../../avr/lib/avr5\libc.a(atoi.o) (__mulhi_const_10)
c:/program files (x86)/atmel/studio/7.0/toolchain/avr8/avr8-gnu-toolchain/bin/../lib/gcc/avr/4.9.2/../../../../avr/lib/avr5\libc.a(utoa_ncheck.o)
                              c:/program files (x86)/atmel/studio/7.0/toolchain/avr8/avr8-gnu-toolchain/bin/../lib/gcc/avr/4.9.2/../../../../avr/lib/avr5\libc.a(itoa_ncheck.o) (__utoa_common)
c:/program files (x86)/atmel/studio/7.0/toolchain/avr8/avr8-gnu-toolchain/bin/../lib/gcc/avr/4.9.2/../../../../avr/lib/avr5\libc.a(strrev.o)
                              c:/program files (x86)/atmel/studio/7.0/toolchain/avr8/avr8-gnu-toolchain/bin/../lib/gcc/avr/4.9.2/../../../../avr/lib/avr5\libc.a(utoa_ncheck.o) (strrev)

Allocating common symbols
Common symbol       size              file

parameter           0x2               src/ble.o
data_count          0x1               src/drivers/uart.o
command_in          0x32              src/ble.o
data_in             0x32              src/drivers/uart.o
received_setpoint_value
                    0x1               src/ble.o
waterTemperature    0x2               src/ntc_temperature.o

Discarded input sections

 .data          0x00000000        0x0 C:/Program Files (x86)/Atmel/Studio/7.0/Packs/atmel/ATmega_DFP/1.0.106/gcc/dev/atmega168p/avr5/crtatmega168p.o
 .bss           0x00000000        0x0 C:/Program Files (x86)/Atmel/Studio/7.0/Packs/atmel/ATmega_DFP/1.0.106/gcc/dev/atmega168p/avr5/crtatmega168p.o
 .text          0x00000000        0x0 main.o
 .data          0x00000000        0x0 main.o
 .bss           0x00000000        0x0 main.o
 .text          0x00000000        0x0 src/battery.o
 .data          0x00000000        0x0 src/battery.o
 .bss           0x00000000        0x0 src/battery.o
 .text.set_charger_state
                0x00000000        0x6 src/battery.o
 .text          0x00000000        0x0 src/ble.o
 .data          0x00000000        0x0 src/ble.o
 .bss           0x00000000        0x0 src/ble.o
 .text.ble_reset
                0x00000000       0x12 src/ble.o
 .text          0x00000000        0x0 src/button.o
 .data          0x00000000        0x0 src/button.o
 .bss           0x00000000        0x0 src/button.o
Memory Configuration

Name             Origin             Length             Attributes
text             0x00000000         0x00020000         xr
data             0x00800060         0x0000ffa0         rw !x
eeprom           0x00810000         0x00010000         rw !x
fuse             0x00820000         0x00000400         rw !x
lock             0x00830000         0x00000400         rw !x
signature        0x00840000         0x00000400         rw !x
user_signatures  0x00850000         0x00000400         rw !x
*default*        0x00000000         0xffffffff

Linker script and memory map

Address of section .data set to 0x800100
LOAD C:/Program Files (x86)/Atmel/Studio/7.0/Packs/atmel/ATmega_DFP/1.0.106/gcc/dev/atmega168p/avr5/crtatmega168p.o
LOAD main.o
LOAD src/battery.o
LOAD src/ble.o
LOAD src/button.o
LOAD src/control.o
LOAD src/drivers/a2d.o
LOAD src/drivers/uart.o
LOAD src/led.o
LOAD src/ntc_temperature.o
LOAD src/peltier.o
START GROUP
LOAD c:/program files (x86)/atmel/studio/7.0/toolchain/avr8/avr8-gnu-toolchain/bin/../lib/gcc/avr/4.9.2/../../../../avr/lib/avr5\libm.a
END GROUP
START GROUP
LOAD c:/program files (x86)/atmel/studio/7.0/toolchain/avr8/avr8-gnu-toolchain/bin/../lib/gcc/avr/4.9.2/avr5\libgcc.a
LOAD c:/program files (x86)/atmel/studio/7.0/toolchain/avr8/avr8-gnu-toolchain/bin/../lib/gcc/avr/4.9.2/../../../../avr/lib/avr5\libm.a
LOAD c:/program files (x86)/atmel/studio/7.0/toolchain/avr8/avr8-gnu-toolchain/bin/../lib/gcc/avr/4.9.2/../../../../avr/lib/avr5\libc.a
LOAD C:/Program Files (x86)/Atmel/Studio/7.0/Packs/atmel/ATmega_DFP/1.0.106/gcc/dev/atmega168p/avr5\libatmega168p.a
END GROUP
                0x00020000                __TEXT_REGION_LENGTH__ = DEFINED (__TEXT_REGION_LENGTH__)?__TEXT_REGION_LENGTH__:0x20000
                0x0000ffa0                __DATA_REGION_LENGTH__ = DEFINED (__DATA_REGION_LENGTH__)?__DATA_REGION_LENGTH__:0xffa0
                0x00010000                __EEPROM_REGION_LENGTH__ = DEFINED (__EEPROM_REGION_LENGTH__)?__EEPROM_REGION_LENGTH__:0x10000
                0x00000400                __FUSE_REGION_LENGTH__ = DEFINED (__FUSE_REGION_LENGTH__)?__FUSE_REGION_LENGTH__:0x400
                0x00000400                __LOCK_REGION_LENGTH__ = DEFINED (__LOCK_REGION_LENGTH__)?__LOCK_REGION_LENGTH__:0x400
                0x00000400                __SIGNATURE_REGION_LENGTH__ = DEFINED (__SIGNATURE_REGION_LENGTH__)?__SIGNATURE_REGION_LENGTH__:0x400
                0x00000400                __USER_SIGNATURE_REGION_LENGTH__ = DEFINED (__USER_SIGNATURE_REGION_LENGTH__)?__USER_SIGNATURE_REGION_LENGTH__:0x400

.hash
 *(.hash)

.dynsym
 *(.dynsym)

.dynstr
 *(.dynstr)

.gnu.version
 *(.gnu.version)

.gnu.version_d
 *(.gnu.version_d)

.gnu.version_r
 *(.gnu.version_r)

.rel.init
 *(.rel.init)

.rela.init
 *(.rela.init)

.rel.text
 *(.rel.text)
 *(.rel.text.*)
 *(.rel.gnu.linkonce.t*)

.rela.text
 *(.rela.text)
 *(.rela.text.*)
 *(.rela.gnu.linkonce.t*)

.rel.fini
 *(.rel.fini)

.rela.fini
 *(.rela.fini)

.rel.rodata
 *(.rel.rodata)
 *(.rel.rodata.*)
 *(.rel.gnu.linkonce.r*)

.rela.rodata
 *(.rela.rodata)
 *(.rela.rodata.*)
 *(.rela.gnu.linkonce.r*)

.rel.data
 *(.rel.data)
 *(.rel.data.*)
 *(.rel.gnu.linkonce.d*)

.rela.data
 *(.rela.data)
 *(.rela.data.*)
 *(.rela.gnu.linkonce.d*)

.rel.ctors
 *(.rel.ctors)

.rela.ctors
 *(.rela.ctors)

.rel.dtors
 *(.rel.dtors)

.rela.dtors
 *(.rela.dtors)

.rel.got
 *(.rel.got)

.rela.got
 *(.rela.got)

.rel.bss
 *(.rel.bss)

.rela.bss
 *(.rela.bss)

.rel.plt
 *(.rel.plt)

.rela.plt
 *(.rela.plt)

.text           0x00000000     0x1db2
 *(.vectors)
 .vectors       0x00000000       0x68 C:/Program Files (x86)/Atmel/Studio/7.0/Packs/atmel/ATmega_DFP/1.0.106/gcc/dev/atmega168p/avr5/crtatmega168p.o
                0x00000000                __vector_default
                0x00000000                __vectors
 *(.vectors)
 *(.progmem.gcc*)
 .progmem.gcc_sw_table.ble_command_handler
                0x00000068       0x22 src/ble.o
                0x0000008a                . = ALIGN (0x2)
                0x0000008a                __trampolines_start = .
 *(.trampolines)
 .trampolines   0x0000008a        0x0 linker stubs
 *(.trampolines*)
                0x0000008a                __trampolines_end = .
 *(.progmem*)
 .progmem.data.Table
                0x0000008a       0x88 src/ntc_temperature.o
                0x00000112                . = ALIGN (0x2)
 *(.jumptables)
 *(.jumptables*)
 *(.lowtext)
 *(.lowtext*)
                0x00000112                __ctors_start = .
 *(.ctors)
                0x00000112                __ctors_end = .
                0x00000112                __dtors_start = .
 *(.dtors)
                0x00000112                __dtors_end = .
 SORT(*)(.ctors)
 SORT(*)(.dtors)
 *(.init0)
 .init0         0x00000112        0x0 C:/Program Files (x86)/Atmel/Studio/7.0/Packs/atmel/ATmega_DFP/1.0.106/gcc/dev/atmega168p/avr5/crtatmega168p.o
                0x00000112                __init
 *(.init0)
 *(.init1)
 *(.init1)
 *(.init2)
 .init2         0x00000112        0xc C:/Program Files (x86)/Atmel/Studio/7.0/Packs/atmel/ATmega_DFP/1.0.106/gcc/dev/atmega168p/avr5/crtatmega168p.o
 *(.init2)
 *(.init3)
 *(.init3)
 *(.init4)
 .init4         0x0000011e       0x16 c:/program files (x86)/atmel/studio/7.0/toolchain/avr8/avr8-gnu-toolchain/bin/../lib/gcc/avr/4.9.2/avr5\libgcc.a(_copy_data.o)
                0x0000011e                __do_copy_data
 .init4         0x00000134       0x10 c:/program files (x86)/atmel/studio/7.0/toolchain/avr8/avr8-gnu-toolchain/bin/../lib/gcc/avr/4.9.2/avr5\libgcc.a(_clear_bss.o)
                0x00000134                __do_clear_bss
 *(.init4)
 *(.init5)
 *(.init5)
 *(.init6)
 *(.init6)
 *(.init7)
 *(.init7)
 *(.init8)
 *(.init8)
 *(.init9)
 .init9         0x00000144        0x8 C:/Program Files (x86)/Atmel/Studio/7.0/Packs/atmel/ATmega_DFP/1.0.106/gcc/dev/atmega168p/avr5/crtatmega168p.o
 *(.init9)
 *(.text)
 .text          0x0000014c        0x4 C:/Program Files (x86)/Atmel/Studio/7.0/Packs/atmel/ATmega_DFP/1.0.106/gcc/dev/atmega168p/avr5/crtatmega168p.o
                0x0000014c                __vector_22
                0x0000014c                __vector_1
                0x0000014c                __vector_24
                0x0000014c                __vector_12
                0x0000014c                __bad_interrupt
                0x0000014c                __vector_6
                0x0000014c                __vector_3
                0x0000014c                __vector_23
                0x0000014c                __vector_25
                0x0000014c                __vector_11
                0x0000014c                __vector_13
                0x0000014c                __vector_17
                0x0000014c                __vector_19
                0x0000014c                __vector_7
                0x0000014c                __vector_5
                0x0000014c                __vector_4
                0x0000014c                __vector_9
                0x0000014c                __vector_2
                0x0000014c                __vector_21
                0x0000014c                __vector_15
                0x0000014c                __vector_8
                0x0000014c                __vector_14
                0x0000014c                __vector_10
                0x0000014c                __vector_16
                0x0000014c                __vector_20
                0x00000150                . = ALIGN (0x2)
 *(.text.*)
 .text.main     0x00000150       0x32 main.o
                0x00000150                main
 .text.calculate_battery_state
                0x00000182       0x80 src/battery.o
                0x00000182                calculate_battery_state
 .text.battery_state_handler
                0x00000202       0x64 src/battery.o
                0x00000202                battery_state_handler
 .text.get_battery_state
                0x00000266        0xa src/battery.o
                0x00000266                get_battery_state
 .text.get_charger_state
                0x00000270        0x6 src/battery.o
                0x00000270                get_charger_state
 .text.set_charge_current
                0x00000276       0x1c src/battery.o
                0x00000276                set_charge_current
 .text.battery_init
                0x00000292       0x22 src/battery.o
                0x00000292                battery_init
 .text.usb_charger_handler
                0x000002b4       0x28 src/battery.o
                0x000002b4                usb_charger_handler
 .text.charger_state_handler
                0x000002dc       0x24 src/battery.o
                0x000002dc                charger_state_handler
 .text.get_charge_current
                0x00000300        0x6 src/battery.o
                0x00000300                get_charge_current
 .text.ble_init
                0x00000306       0x9c src/ble.o
                0x00000306                ble_init
 .text.copy_command
                0x000003a2       0x24 src/ble.o
                0x000003a2                copy_command
 .text.command_parser
                0x000003c6      0x24a src/ble.o
                0x000003c6                command_parser
 .text.change_fan_power
                0x00000610       0x1e src/ble.o
                0x00000610                change_fan_power
 .text.change_heat_power
                0x0000062e       0x1e src/ble.o
                0x0000062e                change_heat_power
 .text.change_cool_power
                0x0000064c       0x1e src/ble.o
                0x0000064c                change_cool_power
 .text.change_setpoint_temperature
                0x0000066a       0x24 src/ble.o
                0x0000066a                change_setpoint_temperature
 .text.send_setpoint_temperature
                0x0000068e       0x44 src/ble.o
                0x0000068e                send_setpoint_temperature
 .text.send_fan_power
                0x000006d2       0x40 src/ble.o
                0x000006d2                send_fan_power
 .text.send_heat_power
                0x00000712       0x40 src/ble.o
                0x00000712                send_heat_power
 .text.send_cool_power
                0x00000752       0x40 src/ble.o
                0x00000752                send_cool_power
 .text.send_temperature
                0x00000792       0x50 src/ble.o
                0x00000792                send_temperature
 .text.send_battery_state
                0x000007e2       0x50 src/ble.o
                0x000007e2                send_battery_state
 .text.send_charger_state
                0x00000832       0x48 src/ble.o
                0x00000832                send_charger_state
 .text.send_fan_state
                0x0000087a       0x36 src/ble.o
                0x0000087a                send_fan_state
 .text.send_peltier_state
                0x000008b0       0x48 src/ble.o
                0x000008b0                send_peltier_state
 .text.send_charge_current_state
                0x000008f8       0x24 src/ble.o
                0x000008f8                send_charge_current_state
 .text.ble_command_handler
                0x0000091c       0xac src/ble.o
                0x0000091c                ble_command_handler
 .text.button_init
                0x000009c8        0x8 src/button.o
                0x000009c8                button_init
 .text.minus_but_state
                0x000009d0       0xec src/button.o
                0x000009d0                minus_but_state
 .text.plus_but_state
                0x00000abc       0xa6 src/button.o
                0x00000abc                plus_but_state
 .text.button_state_handler
                0x00000b62      0x186 src/button.o
                0x00000b62                button_state_handler
 .text.get_minus_button_state
                0x00000ce8        0x6 src/button.o
                0x00000ce8                get_minus_button_state
 .text.get_plus_button_state
                0x00000cee        0x6 src/button.o
                0x00000cee                get_plus_button_state
 .text.button_test
                0x00000cf4       0xb8 src/button.o
                0x00000cf4                button_test
 .text.get_setpoint_temperature
                0x00000dac        0x6 src/control.o
                0x00000dac                get_setpoint_temperature
 .text.set_setpoint_temperature
                0x00000db2       0x14 src/control.o
                0x00000db2                set_setpoint_temperature
 .text.yecup_turn_off
                0x00000dc6       0x20 src/control.o
                0x00000dc6                yecup_turn_off
 .text.yecup_turn_on
                0x00000de6       0x1e src/control.o
                0x00000de6                yecup_turn_on
 .text.application_state_manager
                0x00000e04      0x154 src/control.o
                0x00000e04                application_state_manager
 .text.a2dSetPrescaler
                0x00000f58        0xe src/drivers/a2d.o
                0x00000f58                a2dSetPrescaler
 .text.a2dSetReference
                0x00000f66       0x16 src/drivers/a2d.o
                0x00000f66                a2dSetReference
 .text.a2dInit  0x00000f7c       0x28 src/drivers/a2d.o
                0x00000f7c                a2dInit
 .text.a2dIsComplete
                0x00000fa4       0x10 src/drivers/a2d.o
                0x00000fa4                a2dIsComplete
 .text.a2dConvert10bit
                0x00000fb4       0x34 src/drivers/a2d.o
                0x00000fb4                a2dConvert10bit
 .text.uartSetBaudRate
                0x00000fe8       0x56 src/drivers/uart.o
                0x00000fe8                uartSetBaudRate
 .text.uartInit
                0x0000103e       0x34 src/drivers/uart.o
                0x0000103e                uartInit
 .text.uartSendByte
                0x00001072       0x10 src/drivers/uart.o
                0x00001072                uartSendByte
 .text.uartSendBuffer
                0x00001082       0x1e src/drivers/uart.o
                0x00001082                uartSendBuffer
 .text.get_command_ready
                0x000010a0        0x6 src/drivers/uart.o
                0x000010a0                get_command_ready
 .text.set_command_ready
                0x000010a6        0x6 src/drivers/uart.o
                0x000010a6                set_command_ready
 .text.clear_data_buffer
                0x000010ac       0x1a src/drivers/uart.o
                0x000010ac                clear_data_buffer
 .text.__vector_18
                0x000010c6       0xc4 src/drivers/uart.o
                0x000010c6                __vector_18
 .text.led_init
                0x0000118a        0xc src/led.o
                0x0000118a                led_init
 .text.my_delay_us
                0x00001196       0x12 src/led.o
                0x00001196                my_delay_us
 .text.led_fade
                0x000011a8       0xaa src/led.o
                0x000011a8                led_fade
 .text.set_led_state
                0x00001252       0x4e src/led.o
                0x00001252                set_led_state
 .text.get_led_state
                0x000012a0        0x6 src/led.o
                0x000012a0                get_led_state
 .text.led_test
                0x000012a6       0x68 src/led.o
                0x000012a6                led_test
 .text.flash_led
                0x0000130e       0x48 src/led.o
                0x0000130e                flash_led
 .text.calculate_temperature
                0x00001356      0x1d6 src/ntc_temperature.o
                0x00001356                calculate_temperature
 .text.ntc_temperature_handler
                0x0000152c       0x68 src/ntc_temperature.o
                0x0000152c                ntc_temperature_handler
 .text.get_water_temperature
                0x00001594        0xa src/ntc_temperature.o
                0x00001594                get_water_temperature
 .text.get_fan_power
                0x0000159e        0x6 src/peltier.o
                0x0000159e                get_fan_power
 .text.get_heat_power
                0x000015a4        0x6 src/peltier.o
                0x000015a4                get_heat_power
 .text.get_cool_power
                0x000015aa        0x6 src/peltier.o
                0x000015aa                get_cool_power
 .text.set_fan_power
                0x000015b0       0x24 src/peltier.o
                0x000015b0                set_fan_power
 .text.set_peltier_heating_power
                0x000015d4       0x2a src/peltier.o
                0x000015d4                set_peltier_heating_power
 .text.set_peltier_cooling_power
                0x000015fe       0x2a src/peltier.o
                0x000015fe                set_peltier_cooling_power
 .text.peltier_init
                0x00001628       0x36 src/peltier.o
                0x00001628                peltier_init
 .text.set_fan_state
                0x0000165e       0x36 src/peltier.o
                0x0000165e                set_fan_state
 .text.set_peltier_state
                0x00001694       0x7c src/peltier.o
                0x00001694                set_peltier_state
 .text.get_fan_state
                0x00001710        0x6 src/peltier.o
                0x00001710                get_fan_state
 .text.get_peltier_state
                0x00001716        0x6 src/peltier.o
                0x00001716                get_peltier_state
 .text.peltier_adc_test
                0x0000171c       0x22 src/peltier.o
                0x0000171c                peltier_adc_test
 .text.peltier_test
                0x0000173e       0x68 src/peltier.o
                0x0000173e                peltier_test
 .text.avr-libc.fplib
                0x000017a6        0xe c:/program files (x86)/atmel/studio/7.0/toolchain/avr8/avr8-gnu-toolchain/bin/../lib/gcc/avr/4.9.2/../../../../avr/lib/avr5\libm.a(addsf3.o)
                0x000017a6                __subsf3
                0x000017a8                __addsf3
 .text.avr-libc.fplib
                0x000017b4       0xcc c:/program files (x86)/atmel/studio/7.0/toolchain/avr8/avr8-gnu-toolchain/bin/../lib/gcc/avr/4.9.2/../../../../avr/lib/avr5\libm.a(addsf3x.o)
                0x000017d6                __addsf3x
 .text.avr-libc.fplib
                0x00001880        0xa c:/program files (x86)/atmel/studio/7.0/toolchain/avr8/avr8-gnu-toolchain/bin/../lib/gcc/avr/4.9.2/../../../../avr/lib/avr5\libm.a(cmpsf2.o)
                0x00001880                __nesf2
                0x00001880                __eqsf2
                0x00001880                __cmpsf2
                0x00001880                __ltsf2
                0x00001880                __lesf2
 .text.avr-libc.fplib
                0x0000188a        0x8 c:/program files (x86)/atmel/studio/7.0/toolchain/avr8/avr8-gnu-toolchain/bin/../lib/gcc/avr/4.9.2/../../../../avr/lib/avr5\libm.a(divsf3.o)
                0x0000188a                __divsf3
 .text.avr-libc.fplib
                0x00001892       0xdc c:/program files (x86)/atmel/studio/7.0/toolchain/avr8/avr8-gnu-toolchain/bin/../lib/gcc/avr/4.9.2/../../../../avr/lib/avr5\libm.a(divsf3x.o)
                0x000018b2                __divsf3x
                0x000018b8                __divsf3_pse
 .text.avr-libc.fplib
                0x0000196e        0xe c:/program files (x86)/atmel/studio/7.0/toolchain/avr8/avr8-gnu-toolchain/bin/../lib/gcc/avr/4.9.2/../../../../avr/lib/avr5\libm.a(fixsfsi.o)
                0x0000196e                __fixsfsi
 .text.avr-libc.fplib
                0x0000197c       0x5e c:/program files (x86)/atmel/studio/7.0/toolchain/avr8/avr8-gnu-toolchain/bin/../lib/gcc/avr/4.9.2/../../../../avr/lib/avr5\libm.a(fixunssfsi.o)
                0x0000197c                __fixunssfsi
 .text.avr-libc.fplib
                0x000019da       0x7a c:/program files (x86)/atmel/studio/7.0/toolchain/avr8/avr8-gnu-toolchain/bin/../lib/gcc/avr/4.9.2/../../../../avr/lib/avr5\libm.a(floatsisf.o)
                0x000019da                __floatunsisf
                0x000019de                __floatsisf
 .text.avr-libc.fplib
                0x00001a54       0x48 c:/program files (x86)/atmel/studio/7.0/toolchain/avr8/avr8-gnu-toolchain/bin/../lib/gcc/avr/4.9.2/../../../../avr/lib/avr5\libm.a(fp_cmp.o)
                0x00001a54                __fp_cmp
 .text.avr-libc.fplib
                0x00001a9c        0xc c:/program files (x86)/atmel/studio/7.0/toolchain/avr8/avr8-gnu-toolchain/bin/../lib/gcc/avr/4.9.2/../../../../avr/lib/avr5\libm.a(fp_inf.o)
                0x00001a9c                __fp_inf
 .text.avr-libc.fplib
                0x00001aa8        0x6 c:/program files (x86)/atmel/studio/7.0/toolchain/avr8/avr8-gnu-toolchain/bin/../lib/gcc/avr/4.9.2/../../../../avr/lib/avr5\libm.a(fp_nan.o)
                0x00001aa8                __fp_nan
 .text.avr-libc.fplib
                0x00001aae        0xe c:/program files (x86)/atmel/studio/7.0/toolchain/avr8/avr8-gnu-toolchain/bin/../lib/gcc/avr/4.9.2/../../../../avr/lib/avr5\libm.a(fp_pscA.o)
                0x00001aae                __fp_pscA
 .text.avr-libc.fplib
                0x00001abc        0xe c:/program files (x86)/atmel/studio/7.0/toolchain/avr8/avr8-gnu-toolchain/bin/../lib/gcc/avr/4.9.2/../../../../avr/lib/avr5\libm.a(fp_pscB.o)
                0x00001abc                __fp_pscB
 .text.avr-libc.fplib
                0x00001aca       0x22 c:/program files (x86)/atmel/studio/7.0/toolchain/avr8/avr8-gnu-toolchain/bin/../lib/gcc/avr/4.9.2/../../../../avr/lib/avr5\libm.a(fp_round.o)
                0x00001aca                __fp_round
 .text.avr-libc.fplib
                0x00001aec       0x44 c:/program files (x86)/atmel/studio/7.0/toolchain/avr8/avr8-gnu-toolchain/bin/../lib/gcc/avr/4.9.2/../../../../avr/lib/avr5\libm.a(fp_split3.o)
                0x00001aec                __fp_split3
                0x00001afc                __fp_splitA
 .text.avr-libc.fplib
                0x00001b30        0xe c:/program files (x86)/atmel/studio/7.0/toolchain/avr8/avr8-gnu-toolchain/bin/../lib/gcc/avr/4.9.2/../../../../avr/lib/avr5\libm.a(fp_zero.o)
                0x00001b30                __fp_zero
                0x00001b32                __fp_szero
 .text.avr-libc.fplib
                0x00001b3e        0xa c:/program files (x86)/atmel/studio/7.0/toolchain/avr8/avr8-gnu-toolchain/bin/../lib/gcc/avr/4.9.2/../../../../avr/lib/avr5\libm.a(gesf2.o)
                0x00001b3e                __gesf2
                0x00001b3e                __gtsf2
 .text.avr-libc.fplib
                0x00001b48        0x8 c:/program files (x86)/atmel/studio/7.0/toolchain/avr8/avr8-gnu-toolchain/bin/../lib/gcc/avr/4.9.2/../../../../avr/lib/avr5\libm.a(mulsf3.o)
                0x00001b48                __mulsf3
 .text.avr-libc.fplib
                0x00001b50       0xd2 c:/program files (x86)/atmel/studio/7.0/toolchain/avr8/avr8-gnu-toolchain/bin/../lib/gcc/avr/4.9.2/../../../../avr/lib/avr5\libm.a(mulsf3x.o)
                0x00001b6e                __mulsf3x
                0x00001b74                __mulsf3_pse
 .text.libgcc.div
                0x00001c22       0x44 c:/program files (x86)/atmel/studio/7.0/toolchain/avr8/avr8-gnu-toolchain/bin/../lib/gcc/avr/4.9.2/avr5\libgcc.a(_udivmodsi4.o)
                0x00001c22                __udivmodsi4
 .text.libgcc   0x00001c66        0xc c:/program files (x86)/atmel/studio/7.0/toolchain/avr8/avr8-gnu-toolchain/bin/../lib/gcc/avr/4.9.2/avr5\libgcc.a(_tablejump2.o)
                0x00001c66                __tablejump2__
 .text.libgcc.mul
                0x00001c72       0x1e c:/program files (x86)/atmel/studio/7.0/toolchain/avr8/avr8-gnu-toolchain/bin/../lib/gcc/avr/4.9.2/avr5\libgcc.a(_umulhisi3.o)
                0x00001c72                __umulhisi3
 .text.libgcc.mul
                0x00001c90       0x16 c:/program files (x86)/atmel/studio/7.0/toolchain/avr8/avr8-gnu-toolchain/bin/../lib/gcc/avr/4.9.2/avr5\libgcc.a(_muluhisi3.o)
                0x00001c90                __muluhisi3
 .text.avr-libc
                0x00001ca6       0x3c c:/program files (x86)/atmel/studio/7.0/toolchain/avr8/avr8-gnu-toolchain/bin/../lib/gcc/avr/4.9.2/../../../../avr/lib/avr5\libc.a(atoi.o)
                0x00001ca6                atoi
 .text.avr-libc
                0x00001ce2       0x1e c:/program files (x86)/atmel/studio/7.0/toolchain/avr8/avr8-gnu-toolchain/bin/../lib/gcc/avr/4.9.2/../../../../avr/lib/avr5\libc.a(strncpy.o)
                0x00001ce2                strncpy
 .text.avr-libc
                0x00001d00       0x34 c:/program files (x86)/atmel/studio/7.0/toolchain/avr8/avr8-gnu-toolchain/bin/../lib/gcc/avr/4.9.2/../../../../avr/lib/avr5\libc.a(strstr.o)
                0x00001d00                strstr
 .text.avr-libc
                0x00001d34       0x16 c:/program files (x86)/atmel/studio/7.0/toolchain/avr8/avr8-gnu-toolchain/bin/../lib/gcc/avr/4.9.2/../../../../avr/lib/avr5\libc.a(itoa_ncheck.o)
                0x00001d34                __itoa_ncheck
 .text.avr-libc
                0x00001d4a       0x10 c:/program files (x86)/atmel/studio/7.0/toolchain/avr8/avr8-gnu-toolchain/bin/../lib/gcc/avr/4.9.2/../../../../avr/lib/avr5\libc.a(mul10.o)
                0x00001d4a                __mulhi_const_10
 .text.avr-libc
                0x00001d5a       0x34 c:/program files (x86)/atmel/studio/7.0/toolchain/avr8/avr8-gnu-toolchain/bin/../lib/gcc/avr/4.9.2/../../../../avr/lib/avr5\libc.a(utoa_ncheck.o)
                0x00001d5a                __utoa_ncheck
                0x00001d5c                __utoa_common
 .text.avr-libc
                0x00001d8e       0x20 c:/program files (x86)/atmel/studio/7.0/toolchain/avr8/avr8-gnu-toolchain/bin/../lib/gcc/avr/4.9.2/../../../../avr/lib/avr5\libc.a(strrev.o)
                0x00001d8e                strrev
                0x00001dae                . = ALIGN (0x2)
 *(.fini9)
 .fini9         0x00001dae        0x0 c:/program files (x86)/atmel/studio/7.0/toolchain/avr8/avr8-gnu-toolchain/bin/../lib/gcc/avr/4.9.2/avr5\libgcc.a(_exit.o)
                0x00001dae                _exit
                0x00001dae                exit
 *(.fini9)
 *(.fini8)
 *(.fini8)
 *(.fini7)
 *(.fini7)
 *(.fini6)
 *(.fini6)
 *(.fini5)
 *(.fini5)
 *(.fini4)
 *(.fini4)
 *(.fini3)
 *(.fini3)
 *(.fini2)
 *(.fini2)
 *(.fini1)
 *(.fini1)
 *(.fini0)
 .fini0         0x00001dae        0x4 c:/program files (x86)/atmel/studio/7.0/toolchain/avr8/avr8-gnu-toolchain/bin/../lib/gcc/avr/4.9.2/avr5\libgcc.a(_exit.o)
 *(.fini0)
                0x00001db2                _etext = .

.data           0x00800100      0x12e load address 0x00001db2
                0x00800100                PROVIDE (__data_start, .)
 *(.data)
 *(.data*)
 .data.setpointTemperature
                0x00800100        0x1 src/control.o
                0x00800100                setpointTemperature
 *(.rodata)
 *(.rodata*)
 .rodata.str1.1
                0x00800101       0xf0 src/ble.o
 .rodata.half_amp_message
                0x008001f1        0x9 src/ble.o
                0x008001f1                half_amp_message
 .rodata.one_amp_message
                0x008001fa        0x7 src/ble.o
                0x008001fa                one_amp_message
 .rodata.usb_message
                0x00800201        0x5 src/ble.o
                0x00800201                usb_message
 .rodata.ok_message
                0x00800206        0x4 src/ble.o
                0x00800206                ok_message
 .rodata.error_message
                0x0080020a        0x7 src/ble.o
                0x0080020a                error_message
 .rodata.fault_message
                0x00800211        0x7 src/ble.o
                0x00800211                fault_message
 .rodata.cool_message
                0x00800218        0x6 src/ble.o
                0x00800218                cool_message
 .rodata.heat_message
                0x0080021e        0x6 src/ble.o
                0x0080021e                heat_message
 .rodata.off_message
                0x00800224        0x5 src/ble.o
                0x00800224                off_message
 .rodata.on_message
                0x00800229        0x4 src/ble.o
                0x00800229                on_message
 *(.gnu.linkonce.d*)
                0x0080022e                . = ALIGN (0x2)
 *fill*         0x0080022d        0x1 
                0x0080022e                _edata = .
                0x0080022e                PROVIDE (__data_end, .)

.bss            0x0080022e       0x8c
                0x0080022e                PROVIDE (__bss_start, .)
 *(.bss)
 *(.bss*)
 .bss.window_counter.1851
                0x0080022e        0x2 src/battery.o
 .bss.adc_sum_value.1850
                0x00800230        0x2 src/battery.o
 .bss.chargeCurrentState
                0x00800232        0x1 src/battery.o
 .bss.chargerState
                0x00800233        0x1 src/battery.o
 .bss.batteryState
                0x00800234        0x2 src/battery.o
 .bss.plusheldCounter.1683
                0x00800236        0x4 src/button.o
 .bss.minusheldCounter.1682
                0x0080023a        0x4 src/button.o
 .bss.state.1672
                0x0080023e        0x1 src/button.o
 .bss.counter.1663
                0x0080023f        0x2 src/button.o
 .bss.state.1662
                0x00800241        0x1 src/button.o
 .bss.button_plus_state
                0x00800242        0x1 src/button.o
 .bss.button_minus_state
                0x00800243        0x1 src/button.o
 .bss.yecupState
                0x00800244        0x1 src/control.o
                0x00800244                yecupState
 .bss.command_ready
                0x00800245        0x1 src/drivers/uart.o
                0x00800245                command_ready
 .bss.ledState  0x00800246        0x1 src/led.o
 .bss.window_counter.1712
                0x00800247        0x2 src/ntc_temperature.o
 .bss.adc_sum_value.1711
                0x00800249        0x2 src/ntc_temperature.o
 .bss.coolPower
                0x0080024b        0x1 src/peltier.o
 .bss.heatPower
                0x0080024c        0x1 src/peltier.o
 .bss.fanPower  0x0080024d        0x1 src/peltier.o
 .bss.peltierState
                0x0080024e        0x1 src/peltier.o
 .bss.fanState  0x0080024f        0x1 src/peltier.o
 *(COMMON)
 COMMON         0x00800250       0x35 src/ble.o
                0x00800250                parameter
                0x00800252                command_in
                0x00800284                received_setpoint_value
 COMMON         0x00800285       0x33 src/drivers/uart.o
                0x00800285                data_count
                0x00800286                data_in
 COMMON         0x008002b8        0x2 src/ntc_temperature.o
                0x008002b8                waterTemperature
                0x008002ba                PROVIDE (__bss_end, .)
                0x00001db2                __data_load_start = LOADADDR (.data)
                0x00001ee0                __data_load_end = (__data_load_start + SIZEOF (.data))

.noinit         0x008002ba        0x0
                [!provide]                PROVIDE (__noinit_start, .)
 *(.noinit*)
                [!provide]                PROVIDE (__noinit_end, .)
                0x008002ba                _end = .
                [!provide]                PROVIDE (__heap_start, .)

.eeprom         0x00810000        0x0
 *(.eeprom*)
                0x00810000                __eeprom_end = .

.fuse
 *(.fuse)
 *(.lfuse)
 *(.hfuse)
 *(.efuse)

.lock
 *(.lock*)

.signature
 *(.signature*)

.user_signatures
 *(.user_signatures*)

.stab
 *(.stab)

.stabstr
 *(.stabstr)

.stab.excl
 *(.stab.excl)

.stab.exclstr
 *(.stab.exclstr)

.stab.index
 *(.stab.index)

.stab.indexstr
 *(.stab.indexstr)

.comment        0x00000000       0x30
 *(.comment)
 .comment       0x00000000       0x30 main.o
                                 0x31 (size before relaxing)
 .comment       0x00000030       0x31 src/battery.o
 .comment       0x00000030       0x31 src/ble.o
 .comment       0x00000030       0x31 src/button.o
 .comment       0x00000030       0x31 src/control.o
 .comment       0x00000030       0x31 src/drivers/a2d.o
 .comment       0x00000030       0x31 src/drivers/uart.o
 .comment       0x00000030       0x31 src/led.o
 .comment       0x00000030       0x31 src/ntc_temperature.o
 .comment       0x00000030       0x31 src/peltier.o

.note.gnu.avr.deviceinfo
                0x00000000       0x40
 .note.gnu.avr.deviceinfo
                0x00000000       0x40 C:/Program Files (x86)/Atmel/Studio/7.0/Packs/atmel/ATmega_DFP/1.0.106/gcc/dev/atmega168p/avr5/crtatmega168p.o

.note.gnu.build-id
 *(.note.gnu.build-id)

.debug
 *(.debug)

.line
 *(.line)

.debug_srcinfo
 *(.debug_srcinfo)

.debug_sfnames
 *(.debug_sfnames)

.debug_aranges  0x00000000      0x3a8
 *(.debug_aranges)
 .debug_aranges
                0x00000000       0x20 main.o
 .debug_aranges
                0x00000020       0x68 src/battery.o
 .debug_aranges
                0x00000088       0xb0 src/ble.o
 .debug_aranges
                0x00000138       0x60 src/button.o
 .debug_aranges
                0x00000198       0x50 src/control.o
 .debug_aranges
                0x000001e8       0x60 src/drivers/a2d.o
 .debug_aranges
                0x00000248       0x58 src/drivers/uart.o
 .debug_aranges
                0x000002a0       0x50 src/led.o
 .debug_aranges
                0x000002f0       0x30 src/ntc_temperature.o
 .debug_aranges
                0x00000320       0x88 src/peltier.o

.debug_pubnames
 *(.debug_pubnames)

.debug_info     0x00000000     0x3b44
 *(.debug_info .gnu.linkonce.wi.*)
 .debug_info    0x00000000      0x1b5 main.o
 .debug_info    0x000001b5      0x395 src/battery.o
 .debug_info    0x0000054a     0x1795 src/ble.o
 .debug_info    0x00001cdf      0x67f src/button.o
 .debug_info    0x0000235e      0x59c src/control.o
 .debug_info    0x000028fa      0x1fd src/drivers/a2d.o
 .debug_info    0x00002af7      0x274 src/drivers/uart.o
 .debug_info    0x00002d6b      0x4fe src/led.o
 .debug_info    0x00003269      0x2b8 src/ntc_temperature.o
 .debug_info    0x00003521      0x623 src/peltier.o

.debug_abbrev   0x00000000     0x1111
 *(.debug_abbrev)
 .debug_abbrev  0x00000000       0x7a main.o
 .debug_abbrev  0x0000007a      0x1ab src/battery.o
 .debug_abbrev  0x00000225      0x372 src/ble.o
 .debug_abbrev  0x00000597      0x26a src/button.o
 .debug_abbrev  0x00000801      0x192 src/control.o
 .debug_abbrev  0x00000993      0x115 src/drivers/a2d.o
 .debug_abbrev  0x00000aa8      0x15a src/drivers/uart.o
 .debug_abbrev  0x00000c02      0x1f3 src/led.o
 .debug_abbrev  0x00000df5      0x155 src/ntc_temperature.o
 .debug_abbrev  0x00000f4a      0x1c7 src/peltier.o

.debug_line     0x00000000     0x1ec1
 *(.debug_line .debug_line.* .debug_line_end)
 .debug_line    0x00000000      0x124 main.o
 .debug_line    0x00000124      0x254 src/battery.o
 .debug_line    0x00000378      0x840 src/ble.o
 .debug_line    0x00000bb8      0x3fe src/button.o
 .debug_line    0x00000fb6      0x2c6 src/control.o
 .debug_line    0x0000127c      0x1bf src/drivers/a2d.o
 .debug_line    0x0000143b      0x23d src/drivers/uart.o
 .debug_line    0x00001678      0x2e9 src/led.o
 .debug_line    0x00001961      0x17d src/ntc_temperature.o
 .debug_line    0x00001ade      0x3e3 src/peltier.o

.debug_frame    0x00000000      0x7f4
 *(.debug_frame)
 .debug_frame   0x00000000       0x24 main.o
 .debug_frame   0x00000024       0xd0 src/battery.o
 .debug_frame   0x000000f4      0x1b4 src/ble.o
 .debug_frame   0x000002a8       0xb0 src/button.o
 .debug_frame   0x00000358       0x84 src/control.o
 .debug_frame   0x000003dc       0xa4 src/drivers/a2d.o
 .debug_frame   0x00000480      0x100 src/drivers/uart.o
 .debug_frame   0x00000580       0xdc src/led.o
 .debug_frame   0x0000065c       0x9c src/ntc_temperature.o
 .debug_frame   0x000006f8       0xfc src/peltier.o

.debug_str      0x00000000      0xe67
 *(.debug_str)
 .debug_str     0x00000000      0x1fc main.o
                                0x235 (size before relaxing)
 .debug_str     0x000001fc      0x1c0 src/battery.o
                                0x364 (size before relaxing)
 .debug_str     0x000003bc      0x6b0 src/ble.o
                                0x969 (size before relaxing)
 .debug_str     0x00000a6c      0x15f src/button.o
                                0x374 (size before relaxing)
 .debug_str     0x00000bcb       0xa3 src/control.o
                                0x458 (size before relaxing)
 .debug_str     0x00000c6e       0x80 src/drivers/a2d.o
                                0x1fd (size before relaxing)
 .debug_str     0x00000cee       0x53 src/drivers/uart.o
                                0x232 (size before relaxing)
 .debug_str     0x00000d41       0x5b src/led.o
                                0x27b (size before relaxing)
 .debug_str     0x00000d9c       0x6d src/ntc_temperature.o
                                0x257 (size before relaxing)
 .debug_str     0x00000e09       0x5e src/peltier.o
                                0x3ba (size before relaxing)

.debug_loc      0x00000000     0x192d
 *(.debug_loc)
 .debug_loc     0x00000000      0x1a3 src/battery.o
 .debug_loc     0x000001a3      0x66b src/ble.o
 .debug_loc     0x0000080e      0x40f src/button.o
 .debug_loc     0x00000c1d       0x7d src/control.o
 .debug_loc     0x00000c9a       0xa5 src/drivers/a2d.o
 .debug_loc     0x00000d3f      0x29f src/drivers/uart.o
 .debug_loc     0x00000fde      0x378 src/led.o
 .debug_loc     0x00001356      0x3cc src/ntc_temperature.o
 .debug_loc     0x00001722      0x20b src/peltier.o

.debug_macinfo
 *(.debug_macinfo)

.debug_weaknames
 *(.debug_weaknames)

.debug_funcnames
 *(.debug_funcnames)

.debug_typenames
 *(.debug_typenames)

.debug_varnames
 *(.debug_varnames)

.debug_pubtypes
 *(.debug_pubtypes)

.debug_ranges   0x00000000      0x350
 *(.debug_ranges)
 .debug_ranges  0x00000000       0x10 main.o
 .debug_ranges  0x00000010       0x58 src/battery.o
 .debug_ranges  0x00000068       0xa0 src/ble.o
 .debug_ranges  0x00000108       0x80 src/button.o
 .debug_ranges  0x00000188       0x40 src/control.o
 .debug_ranges  0x000001c8       0x50 src/drivers/a2d.o
 .debug_ranges  0x00000218       0x48 src/drivers/uart.o
 .debug_ranges  0x00000260       0x40 src/led.o
 .debug_ranges  0x000002a0       0x38 src/ntc_temperature.o
 .debug_ranges  0x000002d8       0x78 src/peltier.o

.debug_macro
 *(.debug_macro)
OUTPUT(YeCup.elf elf32-avr)
LOAD linker stubs
